{
  "contractName": "TokenFarm",
  "abi": [
    {
      "inputs": [
        {
          "internalType": "contract Dacether",
          "name": "_dacether",
          "type": "address"
        },
        {
          "internalType": "contract Dai",
          "name": "_dai",
          "type": "address"
        }
      ],
      "stateMutability": "nonpayable",
      "type": "constructor"
    },
    {
      "anonymous": false,
      "inputs": [
        {
          "indexed": false,
          "internalType": "address",
          "name": "",
          "type": "address"
        },
        {
          "indexed": false,
          "internalType": "uint256",
          "name": "",
          "type": "uint256"
        }
      ],
      "name": "Received",
      "type": "event"
    },
    {
      "inputs": [],
      "name": "dacether",
      "outputs": [
        {
          "internalType": "contract Dacether",
          "name": "",
          "type": "address"
        }
      ],
      "stateMutability": "view",
      "type": "function",
      "constant": true
    },
    {
      "inputs": [],
      "name": "dai",
      "outputs": [
        {
          "internalType": "contract Dai",
          "name": "",
          "type": "address"
        }
      ],
      "stateMutability": "view",
      "type": "function",
      "constant": true
    },
    {
      "inputs": [
        {
          "internalType": "address",
          "name": "",
          "type": "address"
        }
      ],
      "name": "hasStaking",
      "outputs": [
        {
          "internalType": "bool",
          "name": "",
          "type": "bool"
        }
      ],
      "stateMutability": "view",
      "type": "function",
      "constant": true
    },
    {
      "inputs": [
        {
          "internalType": "address",
          "name": "",
          "type": "address"
        }
      ],
      "name": "isStaking",
      "outputs": [
        {
          "internalType": "bool",
          "name": "",
          "type": "bool"
        }
      ],
      "stateMutability": "view",
      "type": "function",
      "constant": true
    },
    {
      "inputs": [],
      "name": "name",
      "outputs": [
        {
          "internalType": "string",
          "name": "",
          "type": "string"
        }
      ],
      "stateMutability": "view",
      "type": "function",
      "constant": true
    },
    {
      "inputs": [],
      "name": "owner",
      "outputs": [
        {
          "internalType": "address",
          "name": "",
          "type": "address"
        }
      ],
      "stateMutability": "view",
      "type": "function",
      "constant": true
    },
    {
      "inputs": [
        {
          "internalType": "uint256",
          "name": "",
          "type": "uint256"
        }
      ],
      "name": "stakers",
      "outputs": [
        {
          "internalType": "address",
          "name": "",
          "type": "address"
        }
      ],
      "stateMutability": "view",
      "type": "function",
      "constant": true
    },
    {
      "inputs": [
        {
          "internalType": "address",
          "name": "",
          "type": "address"
        }
      ],
      "name": "stakingBalance",
      "outputs": [
        {
          "internalType": "uint256",
          "name": "",
          "type": "uint256"
        }
      ],
      "stateMutability": "view",
      "type": "function",
      "constant": true
    },
    {
      "stateMutability": "payable",
      "type": "receive",
      "payable": true
    },
    {
      "inputs": [
        {
          "internalType": "uint256",
          "name": "_amount",
          "type": "uint256"
        }
      ],
      "name": "stakeTokens",
      "outputs": [],
      "stateMutability": "nonpayable",
      "type": "function"
    },
    {
      "inputs": [],
      "name": "unstackedTokens",
      "outputs": [],
      "stateMutability": "nonpayable",
      "type": "function"
    },
    {
      "inputs": [],
      "name": "issueTokens",
      "outputs": [],
      "stateMutability": "nonpayable",
      "type": "function"
    }
  ],
  "bytecode": "0x60806040526040518060400160405280600a81526020017f546f6b656e204661726d0000000000000000000000000000000000000000000081525060019080519060200190620000519291906200014f565b503480156200005f57600080fd5b50604051620015fc380380620015fc8339818101604052810190620000859190620002c2565b336000806101000a81548173ffffffffffffffffffffffffffffffffffffffff021916908373ffffffffffffffffffffffffffffffffffffffff16021790555081600260006101000a81548173ffffffffffffffffffffffffffffffffffffffff021916908373ffffffffffffffffffffffffffffffffffffffff16021790555080600360006101000a81548173ffffffffffffffffffffffffffffffffffffffff021916908373ffffffffffffffffffffffffffffffffffffffff16021790555050506200036d565b8280546200015d9062000338565b90600052602060002090601f016020900481019282620001815760008555620001cd565b82601f106200019c57805160ff1916838001178555620001cd565b82800160010185558215620001cd579182015b82811115620001cc578251825591602001919060010190620001af565b5b509050620001dc9190620001e0565b5090565b5b80821115620001fb576000816000905550600101620001e1565b5090565b600080fd5b600073ffffffffffffffffffffffffffffffffffffffff82169050919050565b6000620002318262000204565b9050919050565b6000620002458262000224565b9050919050565b620002578162000238565b81146200026357600080fd5b50565b60008151905062000277816200024c565b92915050565b60006200028a8262000224565b9050919050565b6200029c816200027d565b8114620002a857600080fd5b50565b600081519050620002bc8162000291565b92915050565b60008060408385031215620002dc57620002db620001ff565b5b6000620002ec8582860162000266565b9250506020620002ff85828601620002ab565b9150509250929050565b7f4e487b7100000000000000000000000000000000000000000000000000000000600052602260045260246000fd5b600060028204905060018216806200035157607f821691505b60208210810362000367576200036662000309565b5b50919050565b61127f806200037d6000396000f3fe60806040526004361061009f5760003560e01c80636f49712b116100645780636f49712b146101a55780637547c7a3146101e25780638da5cb5b1461020b578063c6dfe32714610236578063f4b9fa7514610273578063fd5e6dd11461029e576100df565b80625783b8146100e457806306fdde03146100fb5780630af9a5221461012657806345bc78ab1461015157806360ab58521461018e576100df565b366100df577f88a5966d370b9919b20f3e2c13ff65706f196a4e32cc2c12bf57088f8852587433346040516100d5929190610bf0565b60405180910390a1005b600080fd5b3480156100f057600080fd5b506100f96102db565b005b34801561010757600080fd5b5061011061053a565b60405161011d9190610cb2565b60405180910390f35b34801561013257600080fd5b5061013b6105c8565b6040516101489190610d33565b60405180910390f35b34801561015d57600080fd5b5061017860048036038101906101739190610d7f565b6105ee565b6040516101859190610dac565b60405180910390f35b34801561019a57600080fd5b506101a3610606565b005b3480156101b157600080fd5b506101cc60048036038101906101c79190610d7f565b6107ee565b6040516101d99190610de2565b60405180910390f35b3480156101ee57600080fd5b5061020960048036038101906102049190610e29565b61080e565b005b34801561021757600080fd5b50610220610aed565b60405161022d9190610e56565b60405180910390f35b34801561024257600080fd5b5061025d60048036038101906102589190610d7f565b610b11565b60405161026a9190610de2565b60405180910390f35b34801561027f57600080fd5b50610288610b31565b6040516102959190610e92565b60405180910390f35b3480156102aa57600080fd5b506102c560048036038101906102c09190610e29565b610b57565b6040516102d29190610e56565b60405180910390f35b6000600560003373ffffffffffffffffffffffffffffffffffffffff1673ffffffffffffffffffffffffffffffffffffffff168152602001908152602001600020541161035d576040517f08c379a000000000000000000000000000000000000000000000000000000000815260040161035490610ef9565b60405180910390fd5b6000600560003373ffffffffffffffffffffffffffffffffffffffff1673ffffffffffffffffffffffffffffffffffffffff168152602001908152602001600020549050600360009054906101000a900473ffffffffffffffffffffffffffffffffffffffff1673ffffffffffffffffffffffffffffffffffffffff1663a9059cbb33836040518363ffffffff1660e01b81526004016103fe929190610bf0565b6020604051808303816000875af115801561041d573d6000803e3d6000fd5b505050506040513d601f19601f820116820180604052508101906104419190610f45565b506000600560003373ffffffffffffffffffffffffffffffffffffffff1673ffffffffffffffffffffffffffffffffffffffff168152602001908152602001600020819055506000600760003373ffffffffffffffffffffffffffffffffffffffff1673ffffffffffffffffffffffffffffffffffffffff16815260200190815260200160002060006101000a81548160ff0219169083151502179055506000600660003373ffffffffffffffffffffffffffffffffffffffff1673ffffffffffffffffffffffffffffffffffffffff16815260200190815260200160002060006101000a81548160ff02191690831515021790555050565b6001805461054790610fa1565b80601f016020809104026020016040519081016040528092919081815260200182805461057390610fa1565b80156105c05780601f10610595576101008083540402835291602001916105c0565b820191906000526020600020905b8154815290600101906020018083116105a357829003601f168201915b505050505081565b600260009054906101000a900473ffffffffffffffffffffffffffffffffffffffff1681565b60056020528060005260406000206000915090505481565b60008054906101000a900473ffffffffffffffffffffffffffffffffffffffff1673ffffffffffffffffffffffffffffffffffffffff163373ffffffffffffffffffffffffffffffffffffffff1614610694576040517f08c379a000000000000000000000000000000000000000000000000000000000815260040161068b9061101e565b60405180910390fd5b60005b6004805490508110156107eb576000600482815481106106ba576106b961103e565b5b9060005260206000200160009054906101000a900473ffffffffffffffffffffffffffffffffffffffff1690506000600560008373ffffffffffffffffffffffffffffffffffffffff1673ffffffffffffffffffffffffffffffffffffffff16815260200190815260200160002054905060008111156107d657600260009054906101000a900473ffffffffffffffffffffffffffffffffffffffff1673ffffffffffffffffffffffffffffffffffffffff1663a9059cbb83836040518363ffffffff1660e01b8152600401610791929190610bf0565b6020604051808303816000875af11580156107b0573d6000803e3d6000fd5b505050506040513d601f19601f820116820180604052508101906107d49190610f45565b505b505080806107e39061109c565b915050610697565b50565b60076020528060005260406000206000915054906101000a900460ff1681565b60008111610851576040517f08c379a000000000000000000000000000000000000000000000000000000000815260040161084890611130565b60405180910390fd5b600360009054906101000a900473ffffffffffffffffffffffffffffffffffffffff1673ffffffffffffffffffffffffffffffffffffffff166323b872dd3330846040518463ffffffff1660e01b81526004016108b093929190611150565b6020604051808303816000875af11580156108cf573d6000803e3d6000fd5b505050506040513d601f19601f820116820180604052508101906108f39190610f45565b5080600560003373ffffffffffffffffffffffffffffffffffffffff1673ffffffffffffffffffffffffffffffffffffffff16815260200190815260200160002060008282546109439190611187565b92505081905550600660003373ffffffffffffffffffffffffffffffffffffffff1673ffffffffffffffffffffffffffffffffffffffff16815260200190815260200160002060009054906101000a900460ff16156109d7576040517f08c379a00000000000000000000000000000000000000000000000000000000081526004016109ce90611229565b60405180910390fd5b6004339080600181540180825580915050600190039060005260206000200160009091909190916101000a81548173ffffffffffffffffffffffffffffffffffffffff021916908373ffffffffffffffffffffffffffffffffffffffff1602179055506001600760003373ffffffffffffffffffffffffffffffffffffffff1673ffffffffffffffffffffffffffffffffffffffff16815260200190815260200160002060006101000a81548160ff0219169083151502179055506001600660003373ffffffffffffffffffffffffffffffffffffffff1673ffffffffffffffffffffffffffffffffffffffff16815260200190815260200160002060006101000a81548160ff02191690831515021790555050565b60008054906101000a900473ffffffffffffffffffffffffffffffffffffffff1681565b60066020528060005260406000206000915054906101000a900460ff1681565b600360009054906101000a900473ffffffffffffffffffffffffffffffffffffffff1681565b60048181548110610b6757600080fd5b906000526020600020016000915054906101000a900473ffffffffffffffffffffffffffffffffffffffff1681565b600073ffffffffffffffffffffffffffffffffffffffff82169050919050565b6000610bc182610b96565b9050919050565b610bd181610bb6565b82525050565b6000819050919050565b610bea81610bd7565b82525050565b6000604082019050610c056000830185610bc8565b610c126020830184610be1565b9392505050565b600081519050919050565b600082825260208201905092915050565b60005b83811015610c53578082015181840152602081019050610c38565b83811115610c62576000848401525b50505050565b6000601f19601f8301169050919050565b6000610c8482610c19565b610c8e8185610c24565b9350610c9e818560208601610c35565b610ca781610c68565b840191505092915050565b60006020820190508181036000830152610ccc8184610c79565b905092915050565b6000819050919050565b6000610cf9610cf4610cef84610b96565b610cd4565b610b96565b9050919050565b6000610d0b82610cde565b9050919050565b6000610d1d82610d00565b9050919050565b610d2d81610d12565b82525050565b6000602082019050610d486000830184610d24565b92915050565b600080fd5b610d5c81610bb6565b8114610d6757600080fd5b50565b600081359050610d7981610d53565b92915050565b600060208284031215610d9557610d94610d4e565b5b6000610da384828501610d6a565b91505092915050565b6000602082019050610dc16000830184610be1565b92915050565b60008115159050919050565b610ddc81610dc7565b82525050565b6000602082019050610df76000830184610dd3565b92915050565b610e0681610bd7565b8114610e1157600080fd5b50565b600081359050610e2381610dfd565b92915050565b600060208284031215610e3f57610e3e610d4e565b5b6000610e4d84828501610e14565b91505092915050565b6000602082019050610e6b6000830184610bc8565b92915050565b6000610e7c82610d00565b9050919050565b610e8c81610e71565b82525050565b6000602082019050610ea76000830184610e83565b92915050565b7f63616e206e6f7420756e7374616b650000000000000000000000000000000000600082015250565b6000610ee3600f83610c24565b9150610eee82610ead565b602082019050919050565b60006020820190508181036000830152610f1281610ed6565b9050919050565b610f2281610dc7565b8114610f2d57600080fd5b50565b600081519050610f3f81610f19565b92915050565b600060208284031215610f5b57610f5a610d4e565b5b6000610f6984828501610f30565b91505092915050565b7f4e487b7100000000000000000000000000000000000000000000000000000000600052602260045260246000fd5b60006002820490506001821680610fb957607f821691505b602082108103610fcc57610fcb610f72565b5b50919050565b7f4f6e6c79206f776e65722063616e2063616c6c20746869732100000000000000600082015250565b6000611008601983610c24565b915061101382610fd2565b602082019050919050565b6000602082019050818103600083015261103781610ffb565b9050919050565b7f4e487b7100000000000000000000000000000000000000000000000000000000600052603260045260246000fd5b7f4e487b7100000000000000000000000000000000000000000000000000000000600052601160045260246000fd5b60006110a782610bd7565b91507fffffffffffffffffffffffffffffffffffffffffffffffffffffffffffffffff82036110d9576110d861106d565b5b600182019050919050565b7f616d6f756e742073686f756c642062652067726561746572207468616e203000600082015250565b600061111a601f83610c24565b9150611125826110e4565b602082019050919050565b600060208201905081810360008301526111498161110d565b9050919050565b60006060820190506111656000830186610bc8565b6111726020830185610bc8565b61117f6040830184610be1565b949350505050565b600061119282610bd7565b915061119d83610bd7565b9250827fffffffffffffffffffffffffffffffffffffffffffffffffffffffffffffffff038211156111d2576111d161106d565b5b828201905092915050565b7f416c7265616479207374616b696e670000000000000000000000000000000000600082015250565b6000611213600f83610c24565b915061121e826111dd565b602082019050919050565b6000602082019050818103600083015261124281611206565b905091905056fea26469706673582212204511089986a91327d6b7b32504a5116de2f60bef3fabbd7380cd22844d0c23a964736f6c634300080d0033",
  "immutableReferences": {},
  "source": "// SPDX-License-Identifier: MIT\npragma solidity >=0.4.22 <0.9.0;\n\nimport \"./Dai.sol\";\nimport \"./Dacether.sol\";\n\ncontract TokenFarm {\n    address public owner;\n    string public name = \"Token Farm\";    \n\n    Dacether public dacether;\n    Dai public dai;\n\n    // track the stakers address\n    address[] public stakers;\n\n    mapping(address => uint) public stakingBalance;\n    mapping(address => bool) public hasStaking;\n    mapping(address => bool) public isStaking;\n\n    event Received(address, uint);\n\n    modifier onlyOwner {\n        require(msg.sender == owner, \"Only owner can call this!\");    \n        _;\n    }\n    \n    constructor(Dacether _dacether, Dai _dai) {\n        owner = msg.sender;\n        // store a reference to the dai token and the dacether token stored to the network\n        dacether = _dacether;\n        dai = _dai;\n    }\n\n    receive() external payable {\n        emit Received(msg.sender, msg.value);\n    }\n\n    // 1. Stakes Tokens (Deposit)\n    function stakeTokens(uint _amount) public  {\n        // require amount greter than 0\n        require(_amount > 0, 'amount should be greater than 0'); \n        // transfer dai to this contract for staking\n        dai.transferFrom(msg.sender, address(this), _amount); \n        // update staking balance       \n        stakingBalance[msg.sender] += _amount;\n        // add user to stakers array only if they haven't staked already\n        require(!hasStaking[msg.sender], 'Already staking');\n        stakers.push(msg.sender);\n        // update staking balance\n        isStaking[msg.sender] = true;\n        hasStaking[msg.sender] = true;\n\n    }\n\n    // 2. Unstakes Tokens (Withdraw)\n    function unstackedTokens() public {\n        require(stakingBalance[msg.sender] > 0, 'can not unstake');\n        // get balance\n        uint amount = stakingBalance[msg.sender];\n        // transfer to the user\n        dai.transfer(msg.sender, amount);\n\n        stakingBalance[msg.sender] = 0;\n       \n        isStaking[msg.sender] = false;\n        hasStaking[msg.sender] = false;\n    }\n    \n    // 3. Issuing Tokens (call by owner)\n    function issueTokens() public onlyOwner {\n        // for each staker issue token\n        for(uint i = 0; i < stakers.length; i++) {\n            address recipient = stakers[i];\n            uint amount = stakingBalance[recipient];\n            if(amount > 0) dacether.transfer(recipient, amount);\n        }\n    }\n}",
  "sourcePath": "/Users/danielancuta/Development/blockchain/truffle-react-defi-app/src/contracts/TokenFarm.sol",
  "compiler": {
    "name": "solc",
    "version": "0.8.13+commit.abaa5c0e.Emscripten.clang"
  },
  "schemaVersion": "3.4.7",
  "updatedAt": "2022-05-19T17:05:14.983Z",
  "networkType": "ethereum",
  "devdoc": {
    "kind": "dev",
    "methods": {},
    "version": 1
  },
  "userdoc": {
    "kind": "user",
    "methods": {},
    "version": 1
  }
}